{
  "contractName": "ProductAuthenticator",
  "abi": [
    {
      "inputs": [],
      "stateMutability": "nonpayable",
      "type": "constructor"
    },
    {
      "anonymous": false,
      "inputs": [
        {
          "indexed": true,
          "internalType": "bytes32",
          "name": "productId",
          "type": "bytes32"
        }
      ],
      "name": "ProductRegistered",
      "type": "event"
    },
    {
      "anonymous": false,
      "inputs": [
        {
          "indexed": true,
          "internalType": "bytes32",
          "name": "productId",
          "type": "bytes32"
        },
        {
          "indexed": false,
          "internalType": "bool",
          "name": "isAuthentic",
          "type": "bool"
        }
      ],
      "name": "ProductVerified",
      "type": "event"
    },
    {
      "inputs": [],
      "name": "owner",
      "outputs": [
        {
          "internalType": "address",
          "name": "",
          "type": "address"
        }
      ],
      "stateMutability": "view",
      "type": "function",
      "constant": true
    },
    {
      "inputs": [
        {
          "internalType": "bytes32",
          "name": "",
          "type": "bytes32"
        }
      ],
      "name": "productAuthenticity",
      "outputs": [
        {
          "internalType": "bool",
          "name": "",
          "type": "bool"
        }
      ],
      "stateMutability": "view",
      "type": "function",
      "constant": true
    },
    {
      "inputs": [
        {
          "internalType": "string",
          "name": "productName",
          "type": "string"
        }
      ],
      "name": "registerProduct",
      "outputs": [],
      "stateMutability": "nonpayable",
      "type": "function"
    },
    {
      "inputs": [
        {
          "internalType": "bytes32",
          "name": "productId",
          "type": "bytes32"
        }
      ],
      "name": "verifyProduct",
      "outputs": [
        {
          "internalType": "bool",
          "name": "",
          "type": "bool"
        }
      ],
      "stateMutability": "view",
      "type": "function",
      "constant": true
    }
  ],
  "bytecode": "0x608060405234801561000f575f80fd5b50335f806101000a81548173ffffffffffffffffffffffffffffffffffffffff021916908373ffffffffffffffffffffffffffffffffffffffff1602179055506106da8061005c5f395ff3fe608060405234801561000f575f80fd5b506004361061004a575f3560e01c8063660930e81461004e5780638c2369401461006a5780638da5cb5b1461009a578063eda45965146100b8575b5f80fd5b610068600480360381019061006391906103ba565b6100e8565b005b610084600480360381019061007f9190610434565b610207565b6040516100919190610479565b60405180910390f35b6100a2610224565b6040516100af91906104d1565b60405180910390f35b6100d260048036038101906100cd9190610434565b610247565b6040516100df9190610479565b60405180910390f35b5f8054906101000a900473ffffffffffffffffffffffffffffffffffffffff1673ffffffffffffffffffffffffffffffffffffffff163373ffffffffffffffffffffffffffffffffffffffff1614610175576040517f08c379a000000000000000000000000000000000000000000000000000000000815260040161016c9061056a565b60405180910390fd5b5f60014361018391906105be565b408260405160200161019692919061067d565b6040516020818303038152906040528051906020012090506001805f8381526020019081526020015f205f6101000a81548160ff021916908315150217905550807f696ef2262f3dd28af1c4d1e6bf27f8d3ee834db6807b6b02d35bae011455ee8060405160405180910390a25050565b6001602052805f5260405f205f915054906101000a900460ff1681565b5f8054906101000a900473ffffffffffffffffffffffffffffffffffffffff1681565b5f60015f8381526020019081526020015f205f9054906101000a900460ff169050919050565b5f604051905090565b5f80fd5b5f80fd5b5f80fd5b5f80fd5b5f601f19601f8301169050919050565b7f4e487b71000000000000000000000000000000000000000000000000000000005f52604160045260245ffd5b6102cc82610286565b810181811067ffffffffffffffff821117156102eb576102ea610296565b5b80604052505050565b5f6102fd61026d565b905061030982826102c3565b919050565b5f67ffffffffffffffff82111561032857610327610296565b5b61033182610286565b9050602081019050919050565b828183375f83830152505050565b5f61035e6103598461030e565b6102f4565b90508281526020810184848401111561037a57610379610282565b5b61038584828561033e565b509392505050565b5f82601f8301126103a1576103a061027e565b5b81356103b184826020860161034c565b91505092915050565b5f602082840312156103cf576103ce610276565b5b5f82013567ffffffffffffffff8111156103ec576103eb61027a565b5b6103f88482850161038d565b91505092915050565b5f819050919050565b61041381610401565b811461041d575f80fd5b50565b5f8135905061042e8161040a565b92915050565b5f6020828403121561044957610448610276565b5b5f61045684828501610420565b91505092915050565b5f8115159050919050565b6104738161045f565b82525050565b5f60208201905061048c5f83018461046a565b92915050565b5f73ffffffffffffffffffffffffffffffffffffffff82169050919050565b5f6104bb82610492565b9050919050565b6104cb816104b1565b82525050565b5f6020820190506104e45f8301846104c2565b92915050565b5f82825260208201905092915050565b7f4f6e6c7920746865206f776e65722063616e2063616c6c20746869732066756e5f8201527f6374696f6e000000000000000000000000000000000000000000000000000000602082015250565b5f6105546025836104ea565b915061055f826104fa565b604082019050919050565b5f6020820190508181035f83015261058181610548565b9050919050565b5f819050919050565b7f4e487b71000000000000000000000000000000000000000000000000000000005f52601160045260245ffd5b5f6105c882610588565b91506105d383610588565b92508282039050818111156105eb576105ea610591565b5b92915050565b5f819050919050565b61060b61060682610401565b6105f1565b82525050565b5f81519050919050565b5f81905092915050565b5f5b83811015610642578082015181840152602081019050610627565b5f8484015250505050565b5f61065782610611565b610661818561061b565b9350610671818560208601610625565b80840191505092915050565b5f61068882856105fa565b602082019150610698828461064d565b9150819050939250505056fea264697066735822122000bb220365dc23963227a1b2608a827b378c5e8549f0aa4c8105c58c93cac1d064736f6c63430008150033",
  "immutableReferences": {},
  "source": "// SPDX-License-Identifier: MIT\npragma solidity ^0.8.0;\n\ncontract ProductAuthenticator {\n    address public owner;\n    mapping(bytes32 => bool) public productAuthenticity;\n\n    event ProductRegistered(bytes32 indexed productId);\n    event ProductVerified(bytes32 indexed productId, bool isAuthentic);\n\n    modifier onlyOwner() {\n        require(msg.sender == owner, \"Only the owner can call this function\");\n        _;\n    }\n\n    constructor() {\n        owner = msg.sender;\n    }\n\n    function registerProduct(string memory productName) public onlyOwner {\n        // Use the hash of the transaction as the productId\n        bytes32 productId = keccak256(abi.encodePacked(blockhash(block.number - 1), productName));\n\n        // Store the product authenticity status\n        productAuthenticity[productId] = true;\n\n        // Emit the registration event\n        emit ProductRegistered(productId);\n    }\n\n    function verifyProduct(bytes32 productId) public view returns (bool) {\n        return productAuthenticity[productId];\n    }\n}\n",
  "sourcePath": "C:\\Users\\vane_\\Block\\contracts\\ProductAuthenticator.sol",
  "compiler": {
    "name": "solc",
    "version": "0.8.21+commit.d9974bed.Emscripten.clang"
  },
  "schemaVersion": "3.4.16",
  "updatedAt": "2023-12-04T03:05:49.881Z",
  "networkType": "ethereum",
  "devdoc": {
    "kind": "dev",
    "methods": {},
    "version": 1
  },
  "userdoc": {
    "kind": "user",
    "methods": {},
    "version": 1
  }
}